{"abi":[{"type":"constructor","inputs":[{"name":"_teleporterMessenger","type":"address","internalType":"address"},{"name":"_vNft","type":"address","internalType":"address"}],"stateMutability":"nonpayable"},{"type":"function","name":"BPS_DENOMINATOR","inputs":[],"outputs":[{"name":"","type":"uint256","internalType":"uint256"}],"stateMutability":"view"},{"type":"function","name":"BURN_ADDRESS","inputs":[],"outputs":[{"name":"","type":"address","internalType":"address"}],"stateMutability":"view"},{"type":"function","name":"BURN_BPS","inputs":[],"outputs":[{"name":"","type":"uint256","internalType":"uint256"}],"stateMutability":"view"},{"type":"function","name":"RELEASE_MESSAGE_REQUIRED_GAS","inputs":[],"outputs":[{"name":"","type":"uint256","internalType":"uint256"}],"stateMutability":"view"},{"type":"function","name":"TELEPORTER_MESSENGER","inputs":[],"outputs":[{"name":"","type":"address","internalType":"contract ITeleporterMessenger"}],"stateMutability":"view"},{"type":"function","name":"V_NFT","inputs":[],"outputs":[{"name":"","type":"address","internalType":"contract AvaLoomVNFT"}],"stateMutability":"view"},{"type":"function","name":"buy","inputs":[{"name":"vNftId","type":"uint256","internalType":"uint256"},{"name":"relayerFeeToken","type":"address","internalType":"address"},{"name":"relayerFeeAmount","type":"uint256","internalType":"uint256"}],"outputs":[],"stateMutability":"payable"},{"type":"function","name":"getListing","inputs":[{"name":"vNftId","type":"uint256","internalType":"uint256"}],"outputs":[{"name":"","type":"tuple","internalType":"struct AvaLoomHub.Listing","components":[{"name":"originalTokenId","type":"uint256","internalType":"uint256"},{"name":"originalContract","type":"address","internalType":"address"},{"name":"sourceBlockchainId","type":"bytes32","internalType":"bytes32"},{"name":"sourceSenderAddress","type":"address","internalType":"address"},{"name":"seller","type":"address","internalType":"address"},{"name":"price","type":"uint256","internalType":"uint256"},{"name":"listed","type":"bool","internalType":"bool"},{"name":"sold","type":"bool","internalType":"bool"}]}],"stateMutability":"view"},{"type":"function","name":"listForSale","inputs":[{"name":"vNftId","type":"uint256","internalType":"uint256"},{"name":"priceInWei","type":"uint256","internalType":"uint256"}],"outputs":[],"stateMutability":"nonpayable"},{"type":"function","name":"listings","inputs":[{"name":"","type":"uint256","internalType":"uint256"}],"outputs":[{"name":"originalTokenId","type":"uint256","internalType":"uint256"},{"name":"originalContract","type":"address","internalType":"address"},{"name":"sourceBlockchainId","type":"bytes32","internalType":"bytes32"},{"name":"sourceSenderAddress","type":"address","internalType":"address"},{"name":"seller","type":"address","internalType":"address"},{"name":"price","type":"uint256","internalType":"uint256"},{"name":"listed","type":"bool","internalType":"bool"},{"name":"sold","type":"bool","internalType":"bool"}],"stateMutability":"view"},{"type":"function","name":"receiveTeleporterMessage","inputs":[{"name":"originChainId","type":"bytes32","internalType":"bytes32"},{"name":"originSenderAddress","type":"address","internalType":"address"},{"name":"message","type":"bytes","internalType":"bytes"}],"outputs":[],"stateMutability":"nonpayable"},{"type":"function","name":"releaseSent","inputs":[{"name":"","type":"uint256","internalType":"uint256"}],"outputs":[{"name":"","type":"bool","internalType":"bool"}],"stateMutability":"view"},{"type":"function","name":"retryRelease","inputs":[{"name":"vNftId","type":"uint256","internalType":"uint256"},{"name":"buyer","type":"address","internalType":"address"},{"name":"relayerFeeToken","type":"address","internalType":"address"},{"name":"relayerFeeAmount","type":"uint256","internalType":"uint256"}],"outputs":[{"name":"messageId","type":"bytes32","internalType":"bytes32"}],"stateMutability":"nonpayable"},{"type":"function","name":"setSourceContract","inputs":[{"name":"chainId","type":"bytes32","internalType":"bytes32"},{"name":"sourceContract","type":"address","internalType":"address"}],"outputs":[],"stateMutability":"nonpayable"},{"type":"function","name":"sourceContractsByChainId","inputs":[{"name":"","type":"bytes32","internalType":"bytes32"}],"outputs":[{"name":"","type":"address","internalType":"address"}],"stateMutability":"view"},{"type":"event","name":"Listed","inputs":[{"name":"vNftId","type":"uint256","indexed":true,"internalType":"uint256"},{"name":"price","type":"uint256","indexed":false,"internalType":"uint256"}],"anonymous":false},{"type":"event","name":"ReleaseMessageSent","inputs":[{"name":"vNftId","type":"uint256","indexed":true,"internalType":"uint256"},{"name":"sourceBlockchainId","type":"bytes32","indexed":false,"internalType":"bytes32"},{"name":"sourceContract","type":"address","indexed":false,"internalType":"address"},{"name":"buyer","type":"address","indexed":false,"internalType":"address"}],"anonymous":false},{"type":"event","name":"Sold","inputs":[{"name":"vNftId","type":"uint256","indexed":true,"internalType":"uint256"},{"name":"buyer","type":"address","indexed":true,"internalType":"address"},{"name":"seller","type":"address","indexed":true,"internalType":"address"},{"name":"price","type":"uint256","indexed":false,"internalType":"uint256"},{"name":"burnAmount","type":"uint256","indexed":false,"internalType":"uint256"},{"name":"messageId","type":"bytes32","indexed":false,"internalType":"bytes32"}],"anonymous":false},{"type":"event","name":"SourceContractSet","inputs":[{"name":"chainId","type":"bytes32","indexed":true,"internalType":"bytes32"},{"name":"sourceContract","type":"address","indexed":false,"internalType":"address"}],"anonymous":false},{"type":"event","name":"VNFTCreated","inputs":[{"name":"vNftId","type":"uint256","indexed":true,"internalType":"uint256"},{"name":"originalTokenId","type":"uint256","indexed":false,"internalType":"uint256"},{"name":"originalContract","type":"address","indexed":false,"internalType":"address"},{"name":"sourceBlockchainId","type":"bytes32","indexed":false,"internalType":"bytes32"},{"name":"seller","type":"address","indexed":false,"internalType":"address"}],"anonymous":false},{"type":"error","name":"ReentrancyGuardReentrantCall","inputs":[]},{"type":"error","name":"SafeERC20FailedOperation","inputs":[{"name":"token","type":"address","internalType":"address"}]}],"bytecode":{"object":"0x60c03461017557601f6200177238819003918201601f19168301916001600160401b0383118484101761017957808492604094855283398101031261017557610053602061004c8361018d565b920161018d565b60017f9b779b17422d0df92223018b32b4d1fa46e071723d6817e2486d003becc55f00556001600160a01b039182169190821561013057169081156100eb5760805260a0526040516115d09081620001a282396080518181816102c40152818161069f015281816107a201528181610bb701528181610d0f0152611031015260a051818181610339015281816109250152610a6d0152f35b60405162461bcd60e51b815260206004820152601560248201527f4176614c6f6f6d4875623a207a65726f20764e465400000000000000000000006044820152606490fd5b60405162461bcd60e51b815260206004820152601a60248201527f4176614c6f6f6d4875623a207a65726f206d657373656e6765720000000000006044820152606490fd5b5f80fd5b634e487b7160e01b5f52604160045260245ffd5b51906001600160a01b03821682036101755756fe6080604081815260049182361015610015575f80fd5b5f9260e05f35811c9283624231d41461101f57508263107a274a14610f14578263134f068914610ee45782632afaca20146109735782632c2584b4146109545782632d922a7d1461090f5782633013dd0a146108565782635c07fa0e1461053857826378289fc41461050a578263a37a9fc0146104ec578263c868efaa14610265578263de74e57b146101da57508163e1a45218146101bd578163e80d7fec146100e7575063fccc2813146100c8575f80fd5b346100e357816003193601126100e3576020905161dead8152f35b5080fd5b9050346101b957816003193601126101b957803591602435918385528460205281852060018060a01b0382820154169061012282151561111d565b600681019283549261013a60ff8560081c1615611162565b330361017d575060050184905560ff19166001179055519081527f1ea45e30b31292f9d7c5d37d275b2feca555f13f47dce0fdea2f47e8852ecd7890602090a280f35b606490602086519162461bcd60e51b8352820152601660248201527520bb30a637b7b6a43ab11d103737ba1039b2b63632b960511b6044820152fd5b8280fd5b5050346100e357816003193601126100e357602090516127108152f35b9150346102615760203660031901126102615780836101009560ff93358152806020522080549460018060a01b039283600184015416936002840154908060038601541692850154169260066005860154950154958151998a5260208a01528801526060870152608086015260a0850152818116151560c085015260081c16151590820152f35b8380fd5b915034610261576060366003190112610261578035610282611060565b936044359267ffffffffffffffff8085116104a557366023860112156104a557848201359081116104a55784013660248201116104a5576001600160a01b03907f0000000000000000000000000000000000000000000000000000000000000000821633036104a9578560609103126104a5576024850135958180610315606461030e60448b0161130d565b990161130d565b9716961692898551996335313c2160e11b8b5288838c0152602094858c60248186857f0000000000000000000000000000000000000000000000000000000000000000165af19b8c1561049b57839c610460575b508b9392918a9189519461037c86611076565b8d8652888601928a84528b87018d8152836060890192168252608088019586528c60a089019780895260c08a019b818d528a019a818c528152808d5220975188558360018901955116946bffffffffffffffffffffffff60a01b9586825416179055516002880155826003880191511684825416179055850192511690825416179055516005820155600601915115159082549051151560081b61ff00169160ff169061ffff1916171790558251958652850152830152606082015260807f2dbecfd0284e31cefa7fbae39b6436fc9c25c778e8f6c04f3fc18de6fe7811f991a280f35b919b509291508481813d8111610494575b61047b81836110fb565b8101031261049057519990918b919089610369565b5f80fd5b503d610471565b88513d85823e3d90fd5b8780fd5b835162461bcd60e51b8152602081850152601b60248201527f4176614c6f6f6d4875623a206f6e6c792054656c65706f7274657200000000006044820152606490fd5b505050346100e357816003193601126100e357602090516103e88152f35b509050346101b95760203660031901126101b9578160209360ff923581526002855220541690519015158152f35b508383346100e35760803660031901126100e3578235610556611060565b6044356001600160a01b0381811696918790036104905760643591610579611321565b84875260209787895286882060ff600682015460081c161561081c5786895260028a5260ff888a205416156107db5793889361069b93898c94888a60016105e79c9b01916105cb87845416151561111d565b600281019a8b54815260018a528786822054169d8e15156111ae565b97801515806107d2575b610783575b5054915493518881019283526001600160a01b0394871685166020840152931660408201526106339083906060015b03601f1981018452836110fb565b8754948c5191610642836110a7565b8252868201528b5190610654826110df565b8d82528c5195610663876110c3565b86528a878701528c86015262061a806060860152608085015260a08401528a8a51809681958294630624488560e41b84528301611239565b03927f0000000000000000000000000000000000000000000000000000000000000000165af19687156107785796610741575b505484519081526001600160a01b039283166020820152911660408201527f0a1e255f9939e7a69c391adc3de742f7e033ba94f4f7c48b80087c3a78868d869080606081015b0390a260017f9b779b17422d0df92223018b32b4d1fa46e071723d6817e2486d003becc55f005551908152f35b92919095508683813d8311610771575b61075b81836110fb565b81010312610490579151949091906107146106ce565b503d610751565b8651903d90823e3d90fd5b97506106339291876106259261079b8b30338a611363565b6107c88b837f000000000000000000000000000000000000000000000000000000000000000016896113ec565b92505091926105f6565b508415156105f1565b6064838b808b519262461bcd60e51b845283015260248201527f4176614c6f6f6d4875623a2072656c6561736520616c72656164792073656e746044820152fd5b875162461bcd60e51b81528084018b90526014602482015273105d98531bdbdb521d588e881b9bdd081cdbdb1960621b6044820152606490fd5b509050346101b957816003193601126101b9578035916001600160a01b0361087c611060565b169182156108cd57508284526001602090815281852080546001600160a01b0319168417905590519182527f481b292cab7c5ed16166cdb23e2f24def8be3ae55a4763db476e13f3c87b384691a280f35b6020606492519162461bcd60e51b8352820152601860248201527f4176614c6f6f6d4875623a207a65726f206164647265737300000000000000006044820152fd5b505050346100e357816003193601126100e357517f00000000000000000000000000000000000000000000000000000000000000006001600160a01b03168152602090f35b505050346100e357816003193601126100e3576020905162061a808152f35b50905060603660031901126104905780359161098d611060565b9160449081359161099c611321565b5f868152602081815290859020838101546001600160a01b039081169490916109c686151561111d565b600681019889549760ff891615610ea9576109e760ff8a60081c1615611162565b600583015496873410610e6857883314610e27576103e8808902908982041489151715610e145761271090049b8c890390898211610e0157908e8695949392898f9d9c9b9a99986002019d8e545f5260018c525f2054169d8e1515610a4b906111ae565b61ffff19166101001790555f52600288528c5f2060ff198154166001179055867f000000000000000000000000000000000000000000000000000000000000000016803b15610490578f5f918f8392602491519485938492630852cd8d60e31b84528d8401525af18015610df757610dc8575b508f808080938d5af1610acf6111fa565b5015610d87578e80808f819061dead5af1610ae86111fa565b5015610d465750928a928e879693610bb39896829080151580610d3b575b610cf5575b50835460019094015487518981019586529087166001600160a01b0316602086015233604086015293610b4b90859060600103601f1981018652856110fb565b858d54975192610b5a846110a7565b168252878201528d5191610b6d836110df565b82528d5195610b7b876110c3565b86528c878701528d86015262061a806060860152608085015260a08401528d8b51809781958294630624488560e41b84528301611239565b03927f0000000000000000000000000000000000000000000000000000000000000000165af1918215610ceb578a92610c94575b50907f0a1e255f9939e7a69c391adc3de742f7e033ba94f4f7c48b80087c3a78868d8697610c6a95949392885193845283015286820152877ffcbbc7203c5405e4c874c594fd662872904dc6c78ae7e0b569c51e25df91210160603393a45492519283526001600160a01b03909116602083015233604083015281906060820190565b0390a260017f9b779b17422d0df92223018b32b4d1fa46e071723d6817e2486d003becc55f005580f35b94939291508085813d8311610ce4575b610cae81836110fb565b810103126104905793519293919290917f0a1e255f9939e7a69c391adc3de742f7e033ba94f4f7c48b80087c3a78868d86610be7565b503d610ca4565b87513d8c823e3d90fd5b9050610d3586831691610d0a81303386611363565b8092887f000000000000000000000000000000000000000000000000000000000000000016906113ec565b5f610b0b565b508683161515610b06565b847f4176614c6f6f6d4875623a2073656e64206275726e206661696c656400000000606492898f519362461bcd60e51b8552840152601c6024840152820152fd5b847f4176614c6f6f6d4875623a2073656e642073656c6c6572206661696c65640000606492898f519362461bcd60e51b8552840152601e6024840152820152fd5b909f5067ffffffffffffffff8111610de4578c525f9e5f610abe565b604186634e487b7160e01b5f525260245ffd5b8e513d5f823e3d90fd5b601187634e487b7160e01b5f525260245ffd5b601186634e487b7160e01b5f525260245ffd5b847f4176614c6f6f6d4875623a2063616e6e6f7420627579206f776e000000000000606492898e519362461bcd60e51b8552840152601a6024840152820152fd5b847f4176614c6f6f6d4875623a20696e73756666696369656e742076616c75650000606492898e519362461bcd60e51b8552840152601e6024840152820152fd5b895162461bcd60e51b81528085018790526016602482015275105d98531bdbdb521d588e881b9bdd081b1a5cdd195960521b81890152606490fd5b50823461049057602036600319011261049057602091355f526001825260018060a01b03815f2054169051908152f35b8390346104905760203660031901126104905780610100935f828551610f3981611076565b82815282602082015282878201528260608201528260808201528260a08201528260c0820152015280355f525f602052835f20845191610f7883611076565b81549586845260018060a01b038092816001860154169260208701938452600286015481880190815283808060038a0154169460608b01958652890154169560808a0196875260ff600660058b01549a60a08d019b8c5201549b8b8260c08f9e019d1615158d52019b60081c1615158b5283519c8d52511660208c015251908a015251166060880152511660808601525160a085015251151560c084015251151590820152f35b34610490575f366003190112610490577f00000000000000000000000000000000000000000000000000000000000000006001600160a01b03168152602090f35b602435906001600160a01b038216820361049057565b610100810190811067ffffffffffffffff82111761109357604052565b634e487b7160e01b5f52604160045260245ffd5b6040810190811067ffffffffffffffff82111761109357604052565b60c0810190811067ffffffffffffffff82111761109357604052565b6020810190811067ffffffffffffffff82111761109357604052565b90601f8019910116810190811067ffffffffffffffff82111761109357604052565b1561112457565b60405162461bcd60e51b81526020600482015260166024820152754176614c6f6f6d4875623a206e6f206c697374696e6760501b6044820152606490fd5b1561116957565b60405162461bcd60e51b815260206004820152601860248201527f4176614c6f6f6d4875623a20616c726561647920736f6c6400000000000000006044820152606490fd5b156111b557565b60405162461bcd60e51b815260206004820152601a60248201527f4176614c6f6f6d4875623a20736f75726365206e6f74207365740000000000006044820152606490fd5b3d15611234573d9067ffffffffffffffff82116110935760405191611229601f8201601f1916602001846110fb565b82523d5f602084013e565b606090565b906020918281526101008101918051848301528381015160018060a01b03809116604084015284604083015182815116606086015201516080840152606082015160a084015260808201519360e060c085015284518091528561012085019501915f905b878383106112f357505050505060a00151601f199160e08382860301910152805190818452845f5b8381106112df57505f8584019091015250601f0116010190565b8181840101518282880101520185906112c5565b84518216885296870196909301926001919091019061129d565b35906001600160a01b038216820361049057565b7f9b779b17422d0df92223018b32b4d1fa46e071723d6817e2486d003becc55f0060028154146113515760029055565b604051633ee5aeb560e01b8152600490fd5b6040516323b872dd60e01b5f9081526001600160a01b03938416600452938316602452604494909452909160209060648180855af160015f51148116156113cd575b836040525f606052156113b757505050565b635274afe760e01b835216600482015260249150fd5b60018115166113e357813b15153d1516166113a5565b833d5f823e3d90fd5b91909160018060a01b03808216916040805190636eb1769f60e11b825260049330858401526024971695868884015260209081846044818a5afa938415611590575f94611561575b50830180931161154f5781519263095ea7b360e01b93845f52888752818a52825f604481808a5af160015f5114811615611542575b8185521561147e575b50505050505050505050565b845f528887525f8a52825f604481808a5af160015f5114811615611523575b8185521561150f575082519788945f52865288525f60448180875af19260015f51148416156114e8575b5052156114d957808080808080611472565b635274afe760e01b8352820152fd5b909291506001821516611506579085913b15153d151616915f6114c7565b853d5f823e3d90fd5b635274afe760e01b81528681018890528990fd5b600181151661153957863b15153d15161661149d565b503d5f823e3d90fd5b863b15153d151616611469565b87601186634e487b7160e01b5f52525ffd5b9093508181813d8311611589575b61157981836110fb565b810103126104905751925f611434565b503d61156f565b83513d5f823e3d90fdfea2646970667358221220ecf2939be5d34b3903976a957091996f4d269f4e70d4ee7c423aa8df0594b7ab64736f6c63430008180033","linkReferences":{}},"methodIdentifiers":{"BPS_DENOMINATOR()":"e1a45218","BURN_ADDRESS()":"fccc2813","BURN_BPS()":"a37a9fc0","RELEASE_MESSAGE_REQUIRED_GAS()":"2c2584b4","TELEPORTER_MESSENGER()":"004231d4","V_NFT()":"2d922a7d","buy(uint256,address,uint256)":"2afaca20","getListing(uint256)":"107a274a","listForSale(uint256,uint256)":"e80d7fec","listings(uint256)":"de74e57b","receiveTeleporterMessage(bytes32,address,bytes)":"c868efaa","releaseSent(uint256)":"78289fc4","retryRelease(uint256,address,address,uint256)":"5c07fa0e","setSourceContract(bytes32,address)":"3013dd0a","sourceContractsByChainId(bytes32)":"134f0689"},"id":25}