{"abi":[{"type":"constructor","inputs":[{"name":"_teleporterMessenger","type":"address","internalType":"address"},{"name":"_avaLoomBlockchainId","type":"bytes32","internalType":"bytes32"},{"name":"_avaLoomHubAddress","type":"address","internalType":"address"}],"stateMutability":"nonpayable"},{"type":"function","name":"AVA_LOOM_BLOCKCHAIN_ID","inputs":[],"outputs":[{"name":"","type":"bytes32","internalType":"bytes32"}],"stateMutability":"view"},{"type":"function","name":"AVA_LOOM_HUB_ADDRESS","inputs":[],"outputs":[{"name":"","type":"address","internalType":"address"}],"stateMutability":"view"},{"type":"function","name":"LOCK_MESSAGE_REQUIRED_GAS","inputs":[],"outputs":[{"name":"","type":"uint256","internalType":"uint256"}],"stateMutability":"view"},{"type":"function","name":"TELEPORTER_MESSENGER","inputs":[],"outputs":[{"name":"","type":"address","internalType":"contract ITeleporterMessenger"}],"stateMutability":"view"},{"type":"function","name":"isLocked","inputs":[{"name":"nftContract","type":"address","internalType":"address"},{"name":"tokenId","type":"uint256","internalType":"uint256"}],"outputs":[{"name":"","type":"bool","internalType":"bool"}],"stateMutability":"view"},{"type":"function","name":"lockNft","inputs":[{"name":"nftContract","type":"address","internalType":"contract IERC721"},{"name":"tokenId","type":"uint256","internalType":"uint256"},{"name":"feeTokenAddress","type":"address","internalType":"address"},{"name":"feeAmount","type":"uint256","internalType":"uint256"}],"outputs":[{"name":"messageId","type":"bytes32","internalType":"bytes32"}],"stateMutability":"nonpayable"},{"type":"function","name":"lockedNfTs","inputs":[{"name":"","type":"bytes32","internalType":"bytes32"}],"outputs":[{"name":"nftContract","type":"address","internalType":"address"},{"name":"tokenId","type":"uint256","internalType":"uint256"},{"name":"owner","type":"address","internalType":"address"},{"name":"exists","type":"bool","internalType":"bool"}],"stateMutability":"view"},{"type":"function","name":"onERC721Received","inputs":[{"name":"","type":"address","internalType":"address"},{"name":"","type":"address","internalType":"address"},{"name":"","type":"uint256","internalType":"uint256"},{"name":"","type":"bytes","internalType":"bytes"}],"outputs":[{"name":"","type":"bytes4","internalType":"bytes4"}],"stateMutability":"nonpayable"},{"type":"function","name":"receiveTeleporterMessage","inputs":[{"name":"","type":"bytes32","internalType":"bytes32"},{"name":"","type":"address","internalType":"address"},{"name":"message","type":"bytes","internalType":"bytes"}],"outputs":[],"stateMutability":"nonpayable"},{"type":"event","name":"NFTLocked","inputs":[{"name":"nftContract","type":"address","indexed":true,"internalType":"address"},{"name":"tokenId","type":"uint256","indexed":true,"internalType":"uint256"},{"name":"owner","type":"address","indexed":true,"internalType":"address"},{"name":"lockKey","type":"bytes32","indexed":false,"internalType":"bytes32"},{"name":"messageId","type":"bytes32","indexed":false,"internalType":"bytes32"}],"anonymous":false},{"type":"event","name":"NFTReleased","inputs":[{"name":"nftContract","type":"address","indexed":true,"internalType":"address"},{"name":"tokenId","type":"uint256","indexed":true,"internalType":"uint256"},{"name":"newOwner","type":"address","indexed":true,"internalType":"address"}],"anonymous":false},{"type":"error","name":"ReentrancyGuardReentrantCall","inputs":[]},{"type":"error","name":"SafeERC20FailedOperation","inputs":[{"name":"token","type":"address","internalType":"address"}]}],"bytecode":{"object":"0x60e03461018b57601f6110f138819003918201601f19168301916001600160401b0383118484101761018f5780849260609460405283398101031261018b57610047816101a3565b906100596040602083015192016101a3565b60017f9b779b17422d0df92223018b32b4d1fa46e071723d6817e2486d003becc55f0055916001600160a01b03908116908115610146578316156101015760805260a05260c052604051610f3990816101b882396080518181816101190152818161070b015281816108ac0152818161091801528181610987015281816109ed0152610e5e015260a051818181609701526105e7015260c0518181816106120152610d870152f35b60405162461bcd60e51b815260206004820152601760248201527f4176614c6f6f6d536f757263653a207a65726f206875620000000000000000006044820152606490fd5b60405162461bcd60e51b815260206004820152601d60248201527f4176614c6f6f6d536f757263653a207a65726f206d657373656e6765720000006044820152606490fd5b5f80fd5b634e487b7160e01b5f52604160045260245ffd5b51906001600160a01b038216820361018b5756fe6080806040526004361015610012575f80fd5b5f905f3560e01c9081624231d414610e4c57508063150b7a0214610db65780631ac7a1c714610d7257806334bd52cc14610d195780634cd4ed4d14610cfc57806399cca36c14610c8b578063b1bee97f14610310578063c868efaa146100bd5763f96a47e514610080575f80fd5b346100ba57806003193601126100ba5760206040517f00000000000000000000000000000000000000000000000000000000000000008152f35b80fd5b50346100ba5760603660031901126100ba576100d7610ea3565b5060443567ffffffffffffffff8082116102c757366023830112156102c75781600401359081116102c75781013660248201116102c7576001600160a01b03907f0000000000000000000000000000000000000000000000000000000000000000821633036102cb578260609103126102c75760248201359080610169606461016260448701610eef565b9501610eef565b931692169160405160208101906101b1816101a386868690916034926bffffffffffffffffffffffff199060601b16825260148201520190565b03601f198101835282610ecd565b5190208085528460205260026040862001805460ff8160a01c16156102825760ff60a01b19169055845283602052836002604082208281558260018201550155803b1561027357604051632142170760e11b81523060048201526001600160a01b0384166024820152604481018390528490818160648183875af180156102775761025f575b50807f354f615cdd70e481ae9550d2c5b240a2b4be85627332cd3dc4043faba697cc7f91a480f35b61026890610eb9565b61027357835f610237565b8380fd5b6040513d84823e3d90fd5b60405162461bcd60e51b815260206004820152601960248201527f4176614c6f6f6d536f757263653a206e6f74206c6f636b6564000000000000006044820152606490fd5b8280fd5b60405162461bcd60e51b815260206004820152601e60248201527f4176614c6f6f6d536f757263653a206f6e6c792054656c65706f7274657200006044820152606490fd5b5034610ba9576080366003190112610ba9576004356001600160a01b0381168103610ba957604435906001600160a01b0382168203610ba95760027f9b779b17422d0df92223018b32b4d1fa46e071723d6817e2486d003becc55f005414610c795760027f9b779b17422d0df92223018b32b4d1fa46e071723d6817e2486d003becc55f0055604051606082901b6bffffffffffffffffffffffff1916602082019081526024356034830152906103ca81605481016101a3565b51902090815f525f60205260ff600260405f20015460a01c16610c34576040516331a9108f60e11b81526024803560048301526020908290816001600160a01b0386165afa908115610b9e575f91610bf2575b50336001600160a01b0390911603610bad576040516080810181811067ffffffffffffffff8211176108305760409081526001600160a01b038381168084526024356020808601918252338686019081526001606088018181525f8b81529384905296909220965187546001600160a01b03191690861617875591519086015551600294909401805493516001600160a81b0319909416949092169390931791151560a01b60ff60a01b169190911790553b15610ba9576040516323b872dd60e01b8152336004820152306024808301919091523560448201525f81606481836001600160a01b0387165af18015610b9e57610b8b575b5083606435151580610b79575b610844575b60405193602435602086015233604086015260018060a01b03831660608601526060855284608081011067ffffffffffffffff608087011117610830576080850160c086011067ffffffffffffffff60c0870111176108305760c0850160405260018060a01b0316608085015260a08401526040519283602081011067ffffffffffffffff6020860111176108305760208401604052848452604051938460c081011067ffffffffffffffff60c0870111176108305760c0850160409081527f000000000000000000000000000000000000000000000000000000000000000086526001600160a01b037f0000000000000000000000000000000000000000000000000000000000000000811660208089019182526080868101858b0190815262061a8060608c01908152918b0196875260a08b01979097529351630624488560e41b81526004810182905289516024820152915183166044830152945180519092166064820152908401516084820152905160a4820152905160e060c4830152805161010483018190529195610124870193879391920190885b81811061080e5750505060a001518183036023190160e4830152805180845290875b8281106107f7575050808301602090810188905292601f909101601f191601819003820181877f00000000000000000000000000000000000000000000000000000000000000006001600160a01b03165af19283156107ec5784936107b4575b5060408051928352602083810185905294503392602435926001600160a01b0316917fcd8c3f6ff7da9f3444cfd5d446f7d083b721e3bcf3c7bd8f9a78a0e43d052f4591a460017f9b779b17422d0df92223018b32b4d1fa46e071723d6817e2486d003becc55f0055604051908152f35b9092506020813d6020116107e4575b816107d060209383610ecd565b81010312610273576020935051915f610743565b3d91506107c3565b6040513d86823e3d90fd5b6020828201810151868301820152889450016106e3565b82516001600160a01b03168652602095860195899550909201916001016106c1565b634e487b7160e01b5f52604160045260245ffd5b506040516323b872dd60e01b8552336004523060245260648035604452602090869081806001600160a01b0389165af16001865114811615610b51575b816040528560605215610b335750604051636eb1769f60e11b81523060048201526001600160a01b037f00000000000000000000000000000000000000000000000000000000000000008116602483015260643591906020908290604490829089165afa908115610b28578691610af2575b5060643581018111610ade5760405163095ea7b360e01b5f9081526001600160a01b037f00000000000000000000000000000000000000000000000000000000000000008116600452606435840160245260209190604490829081908b165af160015f5114811615610ac8575b8160405215610971575b5050610526565b63095ea7b360e01b5f9081526001600160a01b037f00000000000000000000000000000000000000000000000000000000000000008116600452602482905260209190604490829081908b165af160015f5114811615610aa9575b8160405215610a8b57506040519063095ea7b360e01b5f5260018060a01b037f0000000000000000000000000000000000000000000000000000000000000000166004526064350160245260205f6044818060018060a01b038a165af160015f5114811615610a63575b8160405215610a45578061096a565b635274afe760e01b81526001600160a01b0385166004820152602490fd5b6001811516610a82573d156001600160a01b0387163b15151616610a36565b503d5f823e3d90fd5b635274afe760e01b81526001600160a01b0386166004820152602490fd5b6001811516610a82573d156001600160a01b0388163b151516166109cc565b3d156001600160a01b0388163b15151616610960565b634e487b7160e01b86526011600452602486fd5b90506020813d602011610b20575b81610b0d60209383610ecd565b81010312610b1c57515f6108f3565b8580fd5b3d9150610b00565b6040513d88823e3d90fd5b635274afe760e01b81526001600160a01b0384166004820152602490fd5b6001811516610b70573d156001600160a01b0386163b15151616610881565b503d85823e3d90fd5b506001600160a01b0384161515610521565b610b96919450610eb9565b5f925f610514565b6040513d5f823e3d90fd5b5f80fd5b60405162461bcd60e51b815260206004820152601860248201527f4176614c6f6f6d536f757263653a206e6f74206f776e657200000000000000006044820152606490fd5b90506020813d602011610c2c575b81610c0d60209383610ecd565b81010312610ba957516001600160a01b0381168103610ba9575f61041d565b3d9150610c00565b60405162461bcd60e51b815260206004820152601d60248201527f4176614c6f6f6d536f757263653a20616c7265616479206c6f636b65640000006044820152606490fd5b604051633ee5aeb560e01b8152600490fd5b34610ba9576040366003190112610ba957610ca4610e8d565b60405160609190911b6bffffffffffffffffffffffff191660208201908152602435603483015290610cd981605481016101a3565b5190205f525f602052602060ff600260405f20015460a01c166040519015158152f35b34610ba9575f366003190112610ba957602060405162061a808152f35b34610ba9576020366003190112610ba9576004355f525f602052608060405f2060ff60018060a01b03918281541692600260018301549201549160405194855260208501528116604084015260a01c1615156060820152f35b34610ba9575f366003190112610ba9576040517f00000000000000000000000000000000000000000000000000000000000000006001600160a01b03168152602090f35b34610ba9576080366003190112610ba957610dcf610e8d565b50610dd8610ea3565b5067ffffffffffffffff606435818111610ba95736602382011215610ba95780600401359182116108305760405191610e1b601f8201601f191660200184610ecd565b8083523660248284010111610ba9575f928160246020940184830137010152604051630a85bd0160e11b8152602090f35b34610ba9575f366003190112610ba9577f00000000000000000000000000000000000000000000000000000000000000006001600160a01b03168152602090f35b600435906001600160a01b0382168203610ba957565b602435906001600160a01b0382168203610ba957565b67ffffffffffffffff811161083057604052565b90601f8019910116810190811067ffffffffffffffff82111761083057604052565b35906001600160a01b0382168203610ba95756fea2646970667358221220198a74cf03e1cafeef02ff34e4f6a19f30b4fb6c6687100b08b21fed607441a564736f6c63430008180033","linkReferences":{}},"methodIdentifiers":{"AVA_LOOM_BLOCKCHAIN_ID()":"f96a47e5","AVA_LOOM_HUB_ADDRESS()":"1ac7a1c7","LOCK_MESSAGE_REQUIRED_GAS()":"4cd4ed4d","TELEPORTER_MESSENGER()":"004231d4","isLocked(address,uint256)":"99cca36c","lockNft(address,uint256,address,uint256)":"b1bee97f","lockedNfTs(bytes32)":"34bd52cc","onERC721Received(address,address,uint256,bytes)":"150b7a02","receiveTeleporterMessage(bytes32,address,bytes)":"c868efaa"},"id":26}