{"abi":[{"type":"constructor","inputs":[],"stateMutability":"nonpayable"},{"type":"function","name":"approve","inputs":[{"name":"to","type":"address","internalType":"address"},{"name":"tokenId","type":"uint256","internalType":"uint256"}],"outputs":[],"stateMutability":"nonpayable"},{"type":"function","name":"balanceOf","inputs":[{"name":"owner","type":"address","internalType":"address"}],"outputs":[{"name":"","type":"uint256","internalType":"uint256"}],"stateMutability":"view"},{"type":"function","name":"burn","inputs":[{"name":"tokenId","type":"uint256","internalType":"uint256"}],"outputs":[],"stateMutability":"nonpayable"},{"type":"function","name":"getApproved","inputs":[{"name":"tokenId","type":"uint256","internalType":"uint256"}],"outputs":[{"name":"","type":"address","internalType":"address"}],"stateMutability":"view"},{"type":"function","name":"isApprovedForAll","inputs":[{"name":"owner","type":"address","internalType":"address"},{"name":"operator","type":"address","internalType":"address"}],"outputs":[{"name":"","type":"bool","internalType":"bool"}],"stateMutability":"view"},{"type":"function","name":"mint","inputs":[{"name":"to","type":"address","internalType":"address"}],"outputs":[{"name":"tokenId","type":"uint256","internalType":"uint256"}],"stateMutability":"nonpayable"},{"type":"function","name":"minter","inputs":[],"outputs":[{"name":"","type":"address","internalType":"address"}],"stateMutability":"view"},{"type":"function","name":"name","inputs":[],"outputs":[{"name":"","type":"string","internalType":"string"}],"stateMutability":"view"},{"type":"function","name":"owner","inputs":[],"outputs":[{"name":"","type":"address","internalType":"address"}],"stateMutability":"view"},{"type":"function","name":"ownerOf","inputs":[{"name":"tokenId","type":"uint256","internalType":"uint256"}],"outputs":[{"name":"","type":"address","internalType":"address"}],"stateMutability":"view"},{"type":"function","name":"renounceOwnership","inputs":[],"outputs":[],"stateMutability":"nonpayable"},{"type":"function","name":"safeTransferFrom","inputs":[{"name":"from","type":"address","internalType":"address"},{"name":"to","type":"address","internalType":"address"},{"name":"tokenId","type":"uint256","internalType":"uint256"}],"outputs":[],"stateMutability":"nonpayable"},{"type":"function","name":"safeTransferFrom","inputs":[{"name":"from","type":"address","internalType":"address"},{"name":"to","type":"address","internalType":"address"},{"name":"tokenId","type":"uint256","internalType":"uint256"},{"name":"data","type":"bytes","internalType":"bytes"}],"outputs":[],"stateMutability":"nonpayable"},{"type":"function","name":"setApprovalForAll","inputs":[{"name":"operator","type":"address","internalType":"address"},{"name":"approved","type":"bool","internalType":"bool"}],"outputs":[],"stateMutability":"nonpayable"},{"type":"function","name":"setMinter","inputs":[{"name":"_minter","type":"address","internalType":"address"}],"outputs":[],"stateMutability":"nonpayable"},{"type":"function","name":"supportsInterface","inputs":[{"name":"interfaceId","type":"bytes4","internalType":"bytes4"}],"outputs":[{"name":"","type":"bool","internalType":"bool"}],"stateMutability":"view"},{"type":"function","name":"symbol","inputs":[],"outputs":[{"name":"","type":"string","internalType":"string"}],"stateMutability":"view"},{"type":"function","name":"tokenURI","inputs":[{"name":"tokenId","type":"uint256","internalType":"uint256"}],"outputs":[{"name":"","type":"string","internalType":"string"}],"stateMutability":"view"},{"type":"function","name":"transferFrom","inputs":[{"name":"from","type":"address","internalType":"address"},{"name":"to","type":"address","internalType":"address"},{"name":"tokenId","type":"uint256","internalType":"uint256"}],"outputs":[],"stateMutability":"nonpayable"},{"type":"function","name":"transferOwnership","inputs":[{"name":"newOwner","type":"address","internalType":"address"}],"outputs":[],"stateMutability":"nonpayable"},{"type":"event","name":"Approval","inputs":[{"name":"owner","type":"address","indexed":true,"internalType":"address"},{"name":"approved","type":"address","indexed":true,"internalType":"address"},{"name":"tokenId","type":"uint256","indexed":true,"internalType":"uint256"}],"anonymous":false},{"type":"event","name":"ApprovalForAll","inputs":[{"name":"owner","type":"address","indexed":true,"internalType":"address"},{"name":"operator","type":"address","indexed":true,"internalType":"address"},{"name":"approved","type":"bool","indexed":false,"internalType":"bool"}],"anonymous":false},{"type":"event","name":"MinterUpdated","inputs":[{"name":"previousMinter","type":"address","indexed":true,"internalType":"address"},{"name":"newMinter","type":"address","indexed":true,"internalType":"address"}],"anonymous":false},{"type":"event","name":"OwnershipTransferred","inputs":[{"name":"previousOwner","type":"address","indexed":true,"internalType":"address"},{"name":"newOwner","type":"address","indexed":true,"internalType":"address"}],"anonymous":false},{"type":"event","name":"Transfer","inputs":[{"name":"from","type":"address","indexed":true,"internalType":"address"},{"name":"to","type":"address","indexed":true,"internalType":"address"},{"name":"tokenId","type":"uint256","indexed":true,"internalType":"uint256"}],"anonymous":false},{"type":"error","name":"ERC721IncorrectOwner","inputs":[{"name":"sender","type":"address","internalType":"address"},{"name":"tokenId","type":"uint256","internalType":"uint256"},{"name":"owner","type":"address","internalType":"address"}]},{"type":"error","name":"ERC721InsufficientApproval","inputs":[{"name":"operator","type":"address","internalType":"address"},{"name":"tokenId","type":"uint256","internalType":"uint256"}]},{"type":"error","name":"ERC721InvalidApprover","inputs":[{"name":"approver","type":"address","internalType":"address"}]},{"type":"error","name":"ERC721InvalidOperator","inputs":[{"name":"operator","type":"address","internalType":"address"}]},{"type":"error","name":"ERC721InvalidOwner","inputs":[{"name":"owner","type":"address","internalType":"address"}]},{"type":"error","name":"ERC721InvalidReceiver","inputs":[{"name":"receiver","type":"address","internalType":"address"}]},{"type":"error","name":"ERC721InvalidSender","inputs":[{"name":"sender","type":"address","internalType":"address"}]},{"type":"error","name":"ERC721NonexistentToken","inputs":[{"name":"tokenId","type":"uint256","internalType":"uint256"}]},{"type":"error","name":"OwnableInvalidOwner","inputs":[{"name":"owner","type":"address","internalType":"address"}]},{"type":"error","name":"OwnableUnauthorizedAccount","inputs":[{"name":"account","type":"address","internalType":"address"}]}],"bytecode":{"object":"0x60803462000356576001600160401b03906040908082018381118282101762000274578252601381526020927f4176614c6f6f6d205669727475616c204e4654000000000000000000000000008483015282519383850185811083821117620002745784526005855264105593919560da1b8186015282519082821162000274575f54916001948584811c941680156200034b575b8385101462000255578190601f94858111620002f8575b50839085831160011462000294575f9262000288575b50505f19600383901b1c191690851b175f555b8551928311620002745783548481811c9116801562000269575b8282101462000255578281116200020d575b5080918311600114620001a85750819293945f926200019c575b50505f19600383901b1c191690821b1790555b3315620001865760068054336001600160a01b0319821681179092559151916001600160a01b03167f8be0079c531659141344cd1fd0a4f28419497f9722a3daafe3b4186f6b6457e05f80a36110a390816200035b8239f35b51631e4fbdf760e01b81525f6004820152602490fd5b015190505f806200011a565b90601f19831695845f52825f20925f905b888210620001f55750508385969710620001dc575b505050811b0190556200012d565b01515f1960f88460031b161c191690555f8080620001ce565b808785968294968601518155019501930190620001b9565b845f52815f208380860160051c8201928487106200024b575b0160051c019085905b8281106200023f57505062000100565b5f81550185906200022f565b9250819262000226565b634e487b7160e01b5f52602260045260245ffd5b90607f1690620000ee565b634e487b7160e01b5f52604160045260245ffd5b015190505f80620000c1565b90879350601f198316915f8052855f20925f5b87828210620002e15750508411620002c8575b505050811b015f55620000d4565b01515f1960f88460031b161c191690555f8080620002ba565b8385015186558b97909501949384019301620002a7565b9091505f8052835f208580850160051c82019286861062000341575b918991869594930160051c01915b82811062000332575050620000ab565b5f815585945089910162000322565b9250819262000314565b93607f169362000094565b5f80fdfe60806040818152600480361015610014575f80fd5b5f3560e01c92836301ffc9a714610b645750826306fdde0314610a9e5782630754617214610a76578263081812fc14610a3e578263095ea7b31461096357826323b872dd1461094c57826342842e0e1461091e57826342966c68146108535782636352211e146108245782636a627842146105c057826370a082311461056c578263715018a6146105115782638da5cb5b146104e957826395d89b41146103da578263a22cb46514610323578263b88d4fde14610291578263c87b56dd1461023f578263e985e9c5146101f1578263f2fde38b1461016957505063fca3b5aa146100fc575f80fd5b3461016557602036600319011261016557610115610c0c565b61011d610ef7565b600780546001600160a01b039283166001600160a01b0319821681179092559091167f1cf2de25c5bf439ac0287061c3a0fa69b3b02867d0ccfd2ded34e42577050b735f80a3005b5f80fd5b3461016557602036600319011261016557610182610c0c565b9061018b610ef7565b6001600160a01b039182169283156101db575050600654826001600160601b0360a01b821617600655167f8be0079c531659141344cd1fd0a4f28419497f9722a3daafe3b4186f6b6457e05f80a3005b905f6024925191631e4fbdf760e01b8352820152fd5b503461016557806003193601126101655760209061020d610c0c565b610215610c22565b9060018060a01b038091165f5260058452825f2091165f52825260ff815f20541690519015158152f35b90346101655760203660031901126101655761025e61028d9235610ebd565b505f815161026b81610c6d565b5280519061027882610c6d565b5f825251918291602083526020830190610bce565b0390f35b9034610165576080366003190112610165576102ab610c0c565b6102b3610c22565b604435916064359467ffffffffffffffff86116101655736602387011215610165578501356102ed6102e482610cbf565b95519586610c9d565b8085523660248288010111610165576020815f9260246103219901838901378601015261031b838383610cdb565b33610f23565b005b903461016557806003193601126101655761033c610c0c565b90602435918215158093036101655733156103c4576001600160a01b03169283156103af5750335f526005602052805f20835f52602052805f2060ff1981541660ff8416179055519081527f17307eab39ab6107e8899845ad3d59bd9653f200f220920489ca2b5937696c3160203392a3005b836024925191630b61174360e31b8352820152fd5b815163a9fbf51f60e01b81525f81860152602490fd5b9034610165575f366003190112610165578051905f90600191600154928360011c90600185169485156104df575b60209586841081146104cc578388528794939291879082156104aa57505060011461044f575b505061028d9291610440910385610c9d565b51928284938452830190610bce565b9085925060015f527fb10e2d527612073b26eecdfd717e6a320cf44b4afac2b0732d9fcbe2b7fa0cf6915f925b828410610492575050508201018161044061042e565b8054848a01860152889550879490930192810161047c565b60ff19168682015292151560051b85019092019250839150610440905061042e565b602289634e487b7160e01b5f525260245ffd5b91607f1691610408565b5034610165575f3660031901126101655760065490516001600160a01b039091168152602090f35b34610165575f36600319011261016557610529610ef7565b600680546001600160a01b031981169091555f906001600160a01b03167f8be0079c531659141344cd1fd0a4f28419497f9722a3daafe3b4186f6b6457e08280a3005b9034610165576020366003190112610165576001600160a01b0361058e610c0c565b1680156105aa57602092505f5260038252805f20549051908152f35b81516322718ad960e21b81525f81850152602490fd5b346101655760209182600319360112610165576105db610c0c565b9160018060a01b036105f281600754163314610e71565b600854935f1990818614610811576001860160085584519161061383610c6d565b5f83528382169384156107fb57848891825f5260028b52885f20541680151593846107ca575b505f82815260038c528981208054600101905583815260028c5289812080546001600160a01b031916841790557fddf252ad1be2c89b69c2b068fc378daa952ba7f163c4a11628f55a4df523b3ef9080a46107b4573b61069d575b50505051908152f35b8392949193518681806106d7630a85bd0160e11b95868352338b8401525f6024840152876044840152608060648401526084830190610bce565b03815f895af15f9181610774575b50610742575050503d5f1461073a573d936106ff85610cbf565b9461070c83519687610c9d565b85523d5f8287013e5b8451948561073457505051633250574960e11b81529182015260249150fd5b85925001fd5b606093610715565b91949293916001600160e01b03191603610760575050838080610694565b6024925191633250574960e11b8352820152fd5b9091508781813d83116107ad575b61078c8183610c9d565b8101031261016557516001600160e01b0319811681036101655790886106e5565b503d610782565b84516339e3563760e11b81525f81860152602490fd5b5f84815260046020526040902080546001600160a01b0319169055815f5260038c52895f209081540190558b610639565b8651633250574960e11b81525f81880152602490fd5b601184634e487b7160e01b5f525260245ffd5b90346101655760203660031901126101655761084260209235610ebd565b90516001600160a01b039091168152f35b3461016557602036600319011261016557803560018060a01b0361087c81600754163314610e71565b815f526002602052835f205416815f82159283156108ec575b828252600260205286822080546001600160a01b03191690557fddf252ad1be2c89b69c2b068fc378daa952ba7f163c4a11628f55a4df523b3ef8280a46108d857005b6024925191637e27328960e01b8352820152fd5b5f83815260046020526040902080546001600160a01b0319169055808252600360205286822082198154019055610895565b5034610165576103219061093136610c38565b9192519261093e84610c6d565b5f845261031b838383610cdb565b346101655761032161095d36610c38565b91610cdb565b903461016557806003193601126101655761097c610c0c565b9160243561098981610ebd565b33151580610a2b575b80610a04575b6109ee576001600160a01b039485169482918691167f8c5be1e5ebec7d5bd14f71427d1e84f3dd0314c0f7b2291e5b200ac8c7c3b9255f80a45f526020525f20906001600160601b0360a01b8254161790555f80f35b835163a9fbf51f60e01b81523381850152602490fd5b5060018060a01b0381165f526005602052835f20335f5260205260ff845f20541615610998565b506001600160a01b038116331415610992565b9034610165576020366003190112610165578160209235610a5e81610ebd565b505f52825260018060a01b03815f2054169051908152f35b5034610165575f3660031901126101655760075490516001600160a01b039091168152602090f35b9034610165575f366003190112610165578051905f905f549160018360011c9060018516948515610b5a575b60209586841081146104cc578388528794939291879082156104aa575050600114610b0157505061028d9291610440910385610c9d565b5f80805286935091907f290decd9548b62a8d60345a988386fc84ba6bc95484008f6362f93160ef3e5635b828410610b42575050508201018161044061042e565b8054848a018601528895508794909301928101610b2c565b91607f1691610aca565b903461016557602036600319011261016557359063ffffffff60e01b8216809203610165576020916380ac58cd60e01b8114908115610bbd575b8115610bac575b5015158152f35b6301ffc9a760e01b14905083610ba5565b635b5e139f60e01b81149150610b9e565b91908251928382525f5b848110610bf8575050825f602080949584010152601f8019910116010190565b602081830181015184830182015201610bd8565b600435906001600160a01b038216820361016557565b602435906001600160a01b038216820361016557565b6060906003190112610165576001600160a01b0390600435828116810361016557916024359081168103610165579060443590565b6020810190811067ffffffffffffffff821117610c8957604052565b634e487b7160e01b5f52604160045260245ffd5b90601f8019910116810190811067ffffffffffffffff821117610c8957604052565b67ffffffffffffffff8111610c8957601f01601f191660200190565b6001600160a01b039182169290918315610e5957815f52602092600284528260409583875f2054169533151580610dc7575b5060029087610d96575b825f5260038152885f2060018154019055835f5252865f20816001600160601b0360a01b825416179055857fddf252ad1be2c89b69c2b068fc378daa952ba7f163c4a11628f55a4df523b3ef5f80a41692838303610d755750505050565b6064945051926364283d7b60e01b8452600484015260248301526044820152fd5b5f84815260046020526040812080546001600160a01b03191690558881526003825289902080545f19019055610d17565b9192509080610e18575b15610ddf579084915f610d0d565b868587610dfc576024915190637e27328960e01b82526004820152fd5b604491519063177e802f60e01b82523360048301526024820152fd5b503386148015610e3d575b80610dd15750845f52600481523384885f20541614610dd1565b50855f5260058152865f20335f52815260ff875f205416610e23565b604051633250574960e11b81525f6004820152602490fd5b15610e7857565b60405162461bcd60e51b815260206004820152601860248201527f4176614c6f6f6d564e46543a206f6e6c79206d696e74657200000000000000006044820152606490fd5b5f818152600260205260409020546001600160a01b0316908115610edf575090565b60249060405190637e27328960e01b82526004820152fd5b6006546001600160a01b03163303610f0b57565b60405163118cdaa760e01b8152336004820152602490fd5b9293909193843b610f36575b5050505050565b604051630a85bd0160e11b8082526001600160a01b039586166004830152938516602482015260448101919091526080606482015260209594909316939290859082908190610f89906084830190610bce565b03815f885af15f918161102d575b50610ff6575050503d5f14610fee573d91610fb183610cbf565b92610fbf6040519485610c9d565b83523d5f8285013e5b82519283610fe957604051633250574960e11b815260048101849052602490fd5b019050fd5b606091610fc8565b9193506001600160e01b03199091160361101557505f80808080610f2f565b60249060405190633250574960e11b82526004820152fd5b9091508581813d8311611066575b6110458183610c9d565b8101031261016557516001600160e01b03198116810361016557905f610f97565b503d61103b56fea26469706673582212207fb48b8609b560461c7d16e98aedaa0c983dda1c8b511c0a71fd4de6e7a8ebc964736f6c63430008180033","linkReferences":{}},"methodIdentifiers":{"approve(address,uint256)":"095ea7b3","balanceOf(address)":"70a08231","burn(uint256)":"42966c68","getApproved(uint256)":"081812fc","isApprovedForAll(address,address)":"e985e9c5","mint(address)":"6a627842","minter()":"07546172","name()":"06fdde03","owner()":"8da5cb5b","ownerOf(uint256)":"6352211e","renounceOwnership()":"715018a6","safeTransferFrom(address,address,uint256)":"42842e0e","safeTransferFrom(address,address,uint256,bytes)":"b88d4fde","setApprovalForAll(address,bool)":"a22cb465","setMinter(address)":"fca3b5aa","supportsInterface(bytes4)":"01ffc9a7","symbol()":"95d89b41","tokenURI(uint256)":"c87b56dd","transferFrom(address,address,uint256)":"23b872dd","transferOwnership(address)":"f2fde38b"},"id":27}